{
  "contracts/IOSGUSDTPrice.sol": {
    "USDTPrice": {
      "abi": [
        {
          "inputs": [
            {
              "internalType": "contract AggregatorV3Interface",
              "name": "_USDTAddr",
              "type": "address"
            }
          ],
          "stateMutability": "nonpayable",
          "type": "constructor"
        },
        {
          "inputs": [],
          "name": "getLatestUSDTPrice",
          "outputs": [
            {
              "internalType": "int256",
              "name": "",
              "type": "int256"
            }
          ],
          "stateMutability": "view",
          "type": "function"
        }
      ],
      "evm": {
        "bytecode": {
          "linkReferences": {},
          "object": "608060405234801561001057600080fd5b506040516104663803806104668339818101604052810190610032919061008d565b806000806101000a81548173ffffffffffffffffffffffffffffffffffffffff021916908373ffffffffffffffffffffffffffffffffffffffff16021790555050610111565b600081519050610087816100fa565b92915050565b60006020828403121561009f57600080fd5b60006100ad84828501610078565b91505092915050565b60006100c1826100da565b9050919050565b60006100d3826100b6565b9050919050565b600073ffffffffffffffffffffffffffffffffffffffff82169050919050565b610103816100c8565b811461010e57600080fd5b50565b610346806101206000396000f3fe608060405234801561001057600080fd5b506004361061002b5760003560e01c806398dd36bf14610030575b600080fd5b61003861004e565b604051610045919061022c565b60405180910390f35b60008060008060009054906101000a900473ffffffffffffffffffffffffffffffffffffffff1673ffffffffffffffffffffffffffffffffffffffff1663feaf968c6040518163ffffffff1660e01b815260040160a06040518083038186803b1580156100ba57600080fd5b505afa1580156100ce573d6000803e3d6000fd5b505050506040513d601f19601f820116820180604052508101906100f29190610183565b509350509250506000811161013c576040517f08c379a000000000000000000000000000000000000000000000000000000000815260040161013390610247565b60405180910390fd5b819250505090565b600081519050610153816102cb565b92915050565b600081519050610168816102e2565b92915050565b60008151905061017d816102f9565b92915050565b600080600080600060a0868803121561019b57600080fd5b60006101a98882890161016e565b95505060206101ba88828901610144565b94505060406101cb88828901610159565b93505060606101dc88828901610159565b92505060806101ed8882890161016e565b9150509295509295909350565b61020381610278565b82525050565b6000610216601283610267565b9150610221826102a2565b602082019050919050565b600060208201905061024160008301846101fa565b92915050565b6000602082019050818103600083015261026081610209565b9050919050565b600082825260208201905092915050565b6000819050919050565b6000819050919050565b600069ffffffffffffffffffff82169050919050565b7f526f756e64206e6f7420636f6d706c6574650000000000000000000000000000600082015250565b6102d481610278565b81146102df57600080fd5b50565b6102eb81610282565b81146102f657600080fd5b50565b6103028161028c565b811461030d57600080fd5b5056fea264697066735822122026a07f469ffd142d4f3331bcb684f32ed3abcc7a45dbf8f2b8a6c76ad0d9841864736f6c63430008040033",
          "opcodes": "PUSH1 0x80 PUSH1 0x40 MSTORE CALLVALUE DUP1 ISZERO PUSH2 0x10 JUMPI PUSH1 0x0 DUP1 REVERT JUMPDEST POP PUSH1 0x40 MLOAD PUSH2 0x466 CODESIZE SUB DUP1 PUSH2 0x466 DUP4 CODECOPY DUP2 DUP2 ADD PUSH1 0x40 MSTORE DUP2 ADD SWAP1 PUSH2 0x32 SWAP2 SWAP1 PUSH2 0x8D JUMP JUMPDEST DUP1 PUSH1 0x0 DUP1 PUSH2 0x100 EXP DUP2 SLOAD DUP2 PUSH20 0xFFFFFFFFFFFFFFFFFFFFFFFFFFFFFFFFFFFFFFFF MUL NOT AND SWAP1 DUP4 PUSH20 0xFFFFFFFFFFFFFFFFFFFFFFFFFFFFFFFFFFFFFFFF AND MUL OR SWAP1 SSTORE POP POP PUSH2 0x111 JUMP JUMPDEST PUSH1 0x0 DUP2 MLOAD SWAP1 POP PUSH2 0x87 DUP2 PUSH2 0xFA JUMP JUMPDEST SWAP3 SWAP2 POP POP JUMP JUMPDEST PUSH1 0x0 PUSH1 0x20 DUP3 DUP5 SUB SLT ISZERO PUSH2 0x9F JUMPI PUSH1 0x0 DUP1 REVERT JUMPDEST PUSH1 0x0 PUSH2 0xAD DUP5 DUP3 DUP6 ADD PUSH2 0x78 JUMP JUMPDEST SWAP2 POP POP SWAP3 SWAP2 POP POP JUMP JUMPDEST PUSH1 0x0 PUSH2 0xC1 DUP3 PUSH2 0xDA JUMP JUMPDEST SWAP1 POP SWAP2 SWAP1 POP JUMP JUMPDEST PUSH1 0x0 PUSH2 0xD3 DUP3 PUSH2 0xB6 JUMP JUMPDEST SWAP1 POP SWAP2 SWAP1 POP JUMP JUMPDEST PUSH1 0x0 PUSH20 0xFFFFFFFFFFFFFFFFFFFFFFFFFFFFFFFFFFFFFFFF DUP3 AND SWAP1 POP SWAP2 SWAP1 POP JUMP JUMPDEST PUSH2 0x103 DUP2 PUSH2 0xC8 JUMP JUMPDEST DUP2 EQ PUSH2 0x10E JUMPI PUSH1 0x0 DUP1 REVERT JUMPDEST POP JUMP JUMPDEST PUSH2 0x346 DUP1 PUSH2 0x120 PUSH1 0x0 CODECOPY PUSH1 0x0 RETURN INVALID PUSH1 0x80 PUSH1 0x40 MSTORE CALLVALUE DUP1 ISZERO PUSH2 0x10 JUMPI PUSH1 0x0 DUP1 REVERT JUMPDEST POP PUSH1 0x4 CALLDATASIZE LT PUSH2 0x2B JUMPI PUSH1 0x0 CALLDATALOAD PUSH1 0xE0 SHR DUP1 PUSH4 0x98DD36BF EQ PUSH2 0x30 JUMPI JUMPDEST PUSH1 0x0 DUP1 REVERT JUMPDEST PUSH2 0x38 PUSH2 0x4E JUMP JUMPDEST PUSH1 0x40 MLOAD PUSH2 0x45 SWAP2 SWAP1 PUSH2 0x22C JUMP JUMPDEST PUSH1 0x40 MLOAD DUP1 SWAP2 SUB SWAP1 RETURN JUMPDEST PUSH1 0x0 DUP1 PUSH1 0x0 DUP1 PUSH1 0x0 SWAP1 SLOAD SWAP1 PUSH2 0x100 EXP SWAP1 DIV PUSH20 0xFFFFFFFFFFFFFFFFFFFFFFFFFFFFFFFFFFFFFFFF AND PUSH20 0xFFFFFFFFFFFFFFFFFFFFFFFFFFFFFFFFFFFFFFFF AND PUSH4 0xFEAF968C PUSH1 0x40 MLOAD DUP2 PUSH4 0xFFFFFFFF AND PUSH1 0xE0 SHL DUP2 MSTORE PUSH1 0x4 ADD PUSH1 0xA0 PUSH1 0x40 MLOAD DUP1 DUP4 SUB DUP2 DUP7 DUP1 EXTCODESIZE ISZERO DUP1 ISZERO PUSH2 0xBA JUMPI PUSH1 0x0 DUP1 REVERT JUMPDEST POP GAS STATICCALL ISZERO DUP1 ISZERO PUSH2 0xCE JUMPI RETURNDATASIZE PUSH1 0x0 DUP1 RETURNDATACOPY RETURNDATASIZE PUSH1 0x0 REVERT JUMPDEST POP POP POP POP PUSH1 0x40 MLOAD RETURNDATASIZE PUSH1 0x1F NOT PUSH1 0x1F DUP3 ADD AND DUP3 ADD DUP1 PUSH1 0x40 MSTORE POP DUP2 ADD SWAP1 PUSH2 0xF2 SWAP2 SWAP1 PUSH2 0x183 JUMP JUMPDEST POP SWAP4 POP POP SWAP3 POP POP PUSH1 0x0 DUP2 GT PUSH2 0x13C JUMPI PUSH1 0x40 MLOAD PUSH32 0x8C379A000000000000000000000000000000000000000000000000000000000 DUP2 MSTORE PUSH1 0x4 ADD PUSH2 0x133 SWAP1 PUSH2 0x247 JUMP JUMPDEST PUSH1 0x40 MLOAD DUP1 SWAP2 SUB SWAP1 REVERT JUMPDEST DUP2 SWAP3 POP POP POP SWAP1 JUMP JUMPDEST PUSH1 0x0 DUP2 MLOAD SWAP1 POP PUSH2 0x153 DUP2 PUSH2 0x2CB JUMP JUMPDEST SWAP3 SWAP2 POP POP JUMP JUMPDEST PUSH1 0x0 DUP2 MLOAD SWAP1 POP PUSH2 0x168 DUP2 PUSH2 0x2E2 JUMP JUMPDEST SWAP3 SWAP2 POP POP JUMP JUMPDEST PUSH1 0x0 DUP2 MLOAD SWAP1 POP PUSH2 0x17D DUP2 PUSH2 0x2F9 JUMP JUMPDEST SWAP3 SWAP2 POP POP JUMP JUMPDEST PUSH1 0x0 DUP1 PUSH1 0x0 DUP1 PUSH1 0x0 PUSH1 0xA0 DUP7 DUP9 SUB SLT ISZERO PUSH2 0x19B JUMPI PUSH1 0x0 DUP1 REVERT JUMPDEST PUSH1 0x0 PUSH2 0x1A9 DUP9 DUP3 DUP10 ADD PUSH2 0x16E JUMP JUMPDEST SWAP6 POP POP PUSH1 0x20 PUSH2 0x1BA DUP9 DUP3 DUP10 ADD PUSH2 0x144 JUMP JUMPDEST SWAP5 POP POP PUSH1 0x40 PUSH2 0x1CB DUP9 DUP3 DUP10 ADD PUSH2 0x159 JUMP JUMPDEST SWAP4 POP POP PUSH1 0x60 PUSH2 0x1DC DUP9 DUP3 DUP10 ADD PUSH2 0x159 JUMP JUMPDEST SWAP3 POP POP PUSH1 0x80 PUSH2 0x1ED DUP9 DUP3 DUP10 ADD PUSH2 0x16E JUMP JUMPDEST SWAP2 POP POP SWAP3 SWAP6 POP SWAP3 SWAP6 SWAP1 SWAP4 POP JUMP JUMPDEST PUSH2 0x203 DUP2 PUSH2 0x278 JUMP JUMPDEST DUP3 MSTORE POP POP JUMP JUMPDEST PUSH1 0x0 PUSH2 0x216 PUSH1 0x12 DUP4 PUSH2 0x267 JUMP JUMPDEST SWAP2 POP PUSH2 0x221 DUP3 PUSH2 0x2A2 JUMP JUMPDEST PUSH1 0x20 DUP3 ADD SWAP1 POP SWAP2 SWAP1 POP JUMP JUMPDEST PUSH1 0x0 PUSH1 0x20 DUP3 ADD SWAP1 POP PUSH2 0x241 PUSH1 0x0 DUP4 ADD DUP5 PUSH2 0x1FA JUMP JUMPDEST SWAP3 SWAP2 POP POP JUMP JUMPDEST PUSH1 0x0 PUSH1 0x20 DUP3 ADD SWAP1 POP DUP2 DUP2 SUB PUSH1 0x0 DUP4 ADD MSTORE PUSH2 0x260 DUP2 PUSH2 0x209 JUMP JUMPDEST SWAP1 POP SWAP2 SWAP1 POP JUMP JUMPDEST PUSH1 0x0 DUP3 DUP3 MSTORE PUSH1 0x20 DUP3 ADD SWAP1 POP SWAP3 SWAP2 POP POP JUMP JUMPDEST PUSH1 0x0 DUP2 SWAP1 POP SWAP2 SWAP1 POP JUMP JUMPDEST PUSH1 0x0 DUP2 SWAP1 POP SWAP2 SWAP1 POP JUMP JUMPDEST PUSH1 0x0 PUSH10 0xFFFFFFFFFFFFFFFFFFFF DUP3 AND SWAP1 POP SWAP2 SWAP1 POP JUMP JUMPDEST PUSH32 0x526F756E64206E6F7420636F6D706C6574650000000000000000000000000000 PUSH1 0x0 DUP3 ADD MSTORE POP JUMP JUMPDEST PUSH2 0x2D4 DUP2 PUSH2 0x278 JUMP JUMPDEST DUP2 EQ PUSH2 0x2DF JUMPI PUSH1 0x0 DUP1 REVERT JUMPDEST POP JUMP JUMPDEST PUSH2 0x2EB DUP2 PUSH2 0x282 JUMP JUMPDEST DUP2 EQ PUSH2 0x2F6 JUMPI PUSH1 0x0 DUP1 REVERT JUMPDEST POP JUMP JUMPDEST PUSH2 0x302 DUP2 PUSH2 0x28C JUMP JUMPDEST DUP2 EQ PUSH2 0x30D JUMPI PUSH1 0x0 DUP1 REVERT JUMPDEST POP JUMP INVALID LOG2 PUSH5 0x6970667358 0x22 SLT KECCAK256 0x26 LOG0 PUSH32 0x469FFD142D4F3331BCB684F32ED3ABCC7A45DBF8F2B8A6C76AD0D9841864736F PUSH13 0x63430008040033000000000000 "
        },
        "methodIdentifiers": {
          "getLatestUSDTPrice()": "98dd36bf"
        }
      }
    }
  }
}