{
  "_format": "hh-sol-artifact-1",
  "contractName": "USDTPrice",
  "sourceName": "contracts/IOSGUSDTPrice.sol",
  "abi": [
    {
      "inputs": [
        {
          "internalType": "contract AggregatorV3Interface",
          "name": "_USDTAddr",
          "type": "address"
        }
      ],
      "stateMutability": "nonpayable",
      "type": "constructor"
    },
    {
      "inputs": [],
      "name": "getLatestUSDTPrice",
      "outputs": [
        {
          "internalType": "int256",
          "name": "",
          "type": "int256"
        }
      ],
      "stateMutability": "view",
      "type": "function"
    }
  ],
  "bytecode": "0x608060405234801561001057600080fd5b506040516104663803806104668339818101604052810190610032919061008d565b806000806101000a81548173ffffffffffffffffffffffffffffffffffffffff021916908373ffffffffffffffffffffffffffffffffffffffff16021790555050610111565b600081519050610087816100fa565b92915050565b60006020828403121561009f57600080fd5b60006100ad84828501610078565b91505092915050565b60006100c1826100da565b9050919050565b60006100d3826100b6565b9050919050565b600073ffffffffffffffffffffffffffffffffffffffff82169050919050565b610103816100c8565b811461010e57600080fd5b50565b610346806101206000396000f3fe608060405234801561001057600080fd5b506004361061002b5760003560e01c806398dd36bf14610030575b600080fd5b61003861004e565b604051610045919061022c565b60405180910390f35b60008060008060009054906101000a900473ffffffffffffffffffffffffffffffffffffffff1673ffffffffffffffffffffffffffffffffffffffff1663feaf968c6040518163ffffffff1660e01b815260040160a06040518083038186803b1580156100ba57600080fd5b505afa1580156100ce573d6000803e3d6000fd5b505050506040513d601f19601f820116820180604052508101906100f29190610183565b509350509250506000811161013c576040517f08c379a000000000000000000000000000000000000000000000000000000000815260040161013390610247565b60405180910390fd5b819250505090565b600081519050610153816102cb565b92915050565b600081519050610168816102e2565b92915050565b60008151905061017d816102f9565b92915050565b600080600080600060a0868803121561019b57600080fd5b60006101a98882890161016e565b95505060206101ba88828901610144565b94505060406101cb88828901610159565b93505060606101dc88828901610159565b92505060806101ed8882890161016e565b9150509295509295909350565b61020381610278565b82525050565b6000610216601283610267565b9150610221826102a2565b602082019050919050565b600060208201905061024160008301846101fa565b92915050565b6000602082019050818103600083015261026081610209565b9050919050565b600082825260208201905092915050565b6000819050919050565b6000819050919050565b600069ffffffffffffffffffff82169050919050565b7f526f756e64206e6f7420636f6d706c6574650000000000000000000000000000600082015250565b6102d481610278565b81146102df57600080fd5b50565b6102eb81610282565b81146102f657600080fd5b50565b6103028161028c565b811461030d57600080fd5b5056fea264697066735822122026a07f469ffd142d4f3331bcb684f32ed3abcc7a45dbf8f2b8a6c76ad0d9841864736f6c63430008040033",
  "linkReferences": {},
  "deployedLinkReferences": {}
}